{
  "contractName": "MetaTransactionBox",
  "abi": [
    {
      "inputs": [],
      "stateMutability": "nonpayable",
      "type": "constructor"
    },
    {
      "inputs": [
        {
          "internalType": "address",
          "name": "forwarder",
          "type": "address"
        }
      ],
      "name": "isTrustedForwarder",
      "outputs": [
        {
          "internalType": "bool",
          "name": "",
          "type": "bool"
        }
      ],
      "stateMutability": "view",
      "type": "function"
    },
    {
      "inputs": [],
      "name": "trustedForwarder",
      "outputs": [
        {
          "internalType": "address",
          "name": "",
          "type": "address"
        }
      ],
      "stateMutability": "view",
      "type": "function"
    },
    {
      "inputs": [],
      "name": "versionRecipient",
      "outputs": [
        {
          "internalType": "string",
          "name": "",
          "type": "string"
        }
      ],
      "stateMutability": "pure",
      "type": "function"
    },
    {
      "inputs": [],
      "name": "getter",
      "outputs": [
        {
          "internalType": "string",
          "name": "",
          "type": "string"
        }
      ],
      "stateMutability": "view",
      "type": "function"
    },
    {
      "inputs": [
        {
          "internalType": "string",
          "name": "_newData",
          "type": "string"
        }
      ],
      "name": "setter",
      "outputs": [],
      "stateMutability": "nonpayable",
      "type": "function"
    }
  ],
  "bytecode": "0x608060405234801561001057600080fd5b50600080546001600160a01b03191673f82986f574803dffd9609be8b9c7b92f63a1410e1790556040805180820190915260158082527f48656c6c6f204d6574617472616e73616374696f6e0000000000000000000000602090920191825261007b91600191610081565b50610155565b82805461008d9061011a565b90600052602060002090601f0160209004810192826100af57600085556100f5565b82601f106100c857805160ff19168380011785556100f5565b828001600101855582156100f5579182015b828111156100f55782518255916020019190600101906100da565b50610101929150610105565b5090565b5b808211156101015760008155600101610106565b600181811c9082168061012e57607f821691505b6020821081141561014f57634e487b7160e01b600052602260045260246000fd5b50919050565b6103f4806101646000396000f3fe608060405234801561001057600080fd5b50600436106100575760003560e01c8063486ff0cd1461005c578063572b6c051461008b5780637da0a877146100bd578063846228a3146100d8578063993a04b7146100ed575b600080fd5b6040805180820190915260018152603160f81b60208201525b6040516100829190610237565b60405180910390f35b6100ad61009936600461028c565b6000546001600160a01b0391821691161490565b6040519015158152602001610082565b6000546040516001600160a01b039091168152602001610082565b6100eb6100e63660046102d2565b6100f5565b005b61007561010c565b805161010890600190602084019061019e565b5050565b60606001805461011b90610383565b80601f016020809104026020016040519081016040528092919081815260200182805461014790610383565b80156101945780601f1061016957610100808354040283529160200191610194565b820191906000526020600020905b81548152906001019060200180831161017757829003601f168201915b5050505050905090565b8280546101aa90610383565b90600052602060002090601f0160209004810192826101cc5760008555610212565b82601f106101e557805160ff1916838001178555610212565b82800160010185558215610212579182015b828111156102125782518255916020019190600101906101f7565b5061021e929150610222565b5090565b5b8082111561021e5760008155600101610223565b600060208083528351808285015260005b8181101561026457858101830151858201604001528201610248565b81811115610276576000604083870101525b50601f01601f1916929092016040019392505050565b60006020828403121561029e57600080fd5b81356001600160a01b03811681146102b557600080fd5b9392505050565b634e487b7160e01b600052604160045260246000fd5b6000602082840312156102e457600080fd5b813567ffffffffffffffff808211156102fc57600080fd5b818401915084601f83011261031057600080fd5b813581811115610322576103226102bc565b604051601f8201601f19908116603f0116810190838211818310171561034a5761034a6102bc565b8160405282815287602084870101111561036357600080fd5b826020860160208301376000928101602001929092525095945050505050565b600181811c9082168061039757607f821691505b602082108114156103b857634e487b7160e01b600052602260045260246000fd5b5091905056fea264697066735822122075a770a92d73801dc89f0dcf0ad780135d976bffec9395ad63f899f6e4ace1f064736f6c63430008090033",
  "immutableReferences": {},
  "source": "// SPDX-License-Identifier: MIT\npragma solidity ^0.8.9;\n\nimport \"@opengsn/contracts/src/BaseRelayRecipient.sol\";\n\ncontract MetaTransactionBox is BaseRelayRecipient {\n    string data;\n\n    /**\n     * Set the trustedForwarder address either in constructor or\n     * in other init function in your contract\n     */\n    constructor() {\n        _setTrustedForwarder(0xF82986F574803dfFd9609BE8b9c7B92f63a1410E);\n        data = \"Hello Metatransaction\";\n    }\n\n    /**\n     * OPTIONAL\n     * You should add one setTrustedForwarder(address _trustedForwarder)\n     * method with onlyOwner modifier so you can change the trusted\n     * forwarder address to switch to some other meta transaction protocol\n     * if any better protocol comes tomorrow or current one is upgraded.\n     */\n\n    /**\n     * Override this function.\n     * This version is to keep track of BaseRelayRecipient you are using\n     * in your contract.\n     */\n    function versionRecipient() external pure override returns (string memory) {\n        return \"1\";\n    }\n\n    function getter() public view returns (string memory) {\n        return data;\n    }\n\n    function setter(string memory _newData) public {\n        data = _newData;\n    }\n}\n",
  "sourcePath": "/home/yosephkurniasoenggoro/Documents/GitHub/moralis-biconomy-metatransactions/Truffle/contracts/MetaTransactionBox.sol",
  "compiler": {
    "name": "solc",
    "version": "0.8.9+commit.e5eed63a.Emscripten.clang"
  },
  "schemaVersion": "3.4.3",
  "updatedAt": "2021-12-08T17:35:48.342Z",
  "devdoc": {
    "kind": "dev",
    "methods": {},
    "version": 1
  },
  "userdoc": {
    "kind": "user",
    "methods": {
      "constructor": {
        "notice": "Set the trustedForwarder address either in constructor or in other init function in your contract"
      },
      "isTrustedForwarder(address)": {
        "notice": "return if the forwarder is trusted to forward relayed transactions to us. the forwarder is required to verify the sender's signature, and verify the call is not a replay."
      },
      "versionRecipient()": {
        "notice": "Override this function. This version is to keep track of BaseRelayRecipient you are using in your contract."
      }
    },
    "version": 1
  }
}