{
  "contractName": "SimpleStorage",
  "abi": [
    {
      "inputs": [
        {
          "internalType": "address",
          "name": "_trustedForwarder",
          "type": "address"
        }
      ],
      "stateMutability": "nonpayable",
      "type": "constructor"
    },
    {
      "inputs": [
        {
          "internalType": "address",
          "name": "forwarder",
          "type": "address"
        }
      ],
      "name": "isTrustedForwarder",
      "outputs": [
        {
          "internalType": "bool",
          "name": "",
          "type": "bool"
        }
      ],
      "stateMutability": "view",
      "type": "function",
      "constant": true
    },
    {
      "inputs": [],
      "name": "owner",
      "outputs": [
        {
          "internalType": "address",
          "name": "",
          "type": "address"
        }
      ],
      "stateMutability": "view",
      "type": "function",
      "constant": true
    },
    {
      "inputs": [],
      "name": "trustedForwarder",
      "outputs": [
        {
          "internalType": "address",
          "name": "",
          "type": "address"
        }
      ],
      "stateMutability": "view",
      "type": "function",
      "constant": true
    },
    {
      "inputs": [
        {
          "internalType": "address",
          "name": "_trustedForwarder",
          "type": "address"
        }
      ],
      "name": "setTrustForwarder",
      "outputs": [],
      "stateMutability": "nonpayable",
      "type": "function"
    },
    {
      "inputs": [],
      "name": "versionRecipient",
      "outputs": [
        {
          "internalType": "string",
          "name": "",
          "type": "string"
        }
      ],
      "stateMutability": "pure",
      "type": "function",
      "constant": true
    },
    {
      "inputs": [],
      "name": "getStorage",
      "outputs": [
        {
          "internalType": "string",
          "name": "",
          "type": "string"
        }
      ],
      "stateMutability": "view",
      "type": "function",
      "constant": true
    },
    {
      "inputs": [
        {
          "internalType": "string",
          "name": "_newData",
          "type": "string"
        }
      ],
      "name": "setStorage",
      "outputs": [],
      "stateMutability": "nonpayable",
      "type": "function"
    }
  ],
  "bytecode": "0x608060405234801561001057600080fd5b5060405161065e38038061065e83398101604081905261002f91610140565b600080546001600160a01b0319166001600160a01b0383161790556040805180820190915260158082527f48656c6c6f204d6574617472616e73616374696f6e0000000000000000000000602090920191825261008e916001916100a7565b5050600280546001600160a01b031916331790556101ab565b8280546100b390610170565b90600052602060002090601f0160209004810192826100d5576000855561011b565b82601f106100ee57805160ff191683800117855561011b565b8280016001018555821561011b579182015b8281111561011b578251825591602001919060010190610100565b5061012792915061012b565b5090565b5b80821115610127576000815560010161012c565b60006020828403121561015257600080fd5b81516001600160a01b038116811461016957600080fd5b9392505050565b600181811c9082168061018457607f821691505b602082108114156101a557634e487b7160e01b600052602260045260246000fd5b50919050565b6104a4806101ba6000396000f3fe608060405234801561001057600080fd5b506004361061007d5760003560e01c80637da0a8771161005b5780637da0a877146100ef5780638da5cb5b14610114578063a57b0b0b14610127578063ddf0b3da1461013c57600080fd5b80633408f73a14610082578063486ff0cd146100a0578063572b6c05146100bd575b600080fd5b61008a61014f565b60405161009791906102e7565b60405180910390f35b6040805180820190915260018152603160f81b602082015261008a565b6100df6100cb36600461033c565b6000546001600160a01b0391821691161490565b6040519015158152602001610097565b6000546001600160a01b03165b6040516001600160a01b039091168152602001610097565b6002546100fc906001600160a01b031681565b61013a610135366004610382565b6101e1565b005b61013a61014a36600461033c565b6101f8565b60606001805461015e90610433565b80601f016020809104026020016040519081016040528092919081815260200182805461018a90610433565b80156101d75780601f106101ac576101008083540402835291602001916101d7565b820191906000526020600020905b8154815290600101906020018083116101ba57829003601f168201915b5050505050905090565b80516101f490600190602084019061024e565b5050565b6002546001600160a01b031633146102305760405162461bcd60e51b8152602060048201526000602482015260440160405180910390fd5b600080546001600160a01b0319166001600160a01b03831617905550565b82805461025a90610433565b90600052602060002090601f01602090048101928261027c57600085556102c2565b82601f1061029557805160ff19168380011785556102c2565b828001600101855582156102c2579182015b828111156102c25782518255916020019190600101906102a7565b506102ce9291506102d2565b5090565b5b808211156102ce57600081556001016102d3565b600060208083528351808285015260005b81811015610314578581018301518582016040015282016102f8565b81811115610326576000604083870101525b50601f01601f1916929092016040019392505050565b60006020828403121561034e57600080fd5b81356001600160a01b038116811461036557600080fd5b9392505050565b634e487b7160e01b600052604160045260246000fd5b60006020828403121561039457600080fd5b813567ffffffffffffffff808211156103ac57600080fd5b818401915084601f8301126103c057600080fd5b8135818111156103d2576103d261036c565b604051601f8201601f19908116603f011681019083821181831017156103fa576103fa61036c565b8160405282815287602084870101111561041357600080fd5b826020860160208301376000928101602001929092525095945050505050565b600181811c9082168061044757607f821691505b6020821081141561046857634e487b7160e01b600052602260045260246000fd5b5091905056fea2646970667358221220d9e9cd6cec2c9914ea682ce419c24181c6ccd03f42d159d6ce8369e935bc286464736f6c63430008090033",
  "immutableReferences": {},
  "source": "// SPDX-License-Identifier: MIT\npragma solidity ^0.8.9;\n\nimport \"@opengsn/contracts/src/BaseRelayRecipient.sol\";\n\ncontract SimpleStorage is BaseRelayRecipient {\n    string data;\n    address public owner;\n\n    modifier onlyOwner() {\n        require(owner == msg.sender, \"\");\n        _;\n    }\n\n    /**\n     * Set the trustedForwarder address either in constructor or\n     * in other init function in your contract\n     */\n    constructor(address _trustedForwarder) {\n        _setTrustedForwarder(_trustedForwarder);\n        data = \"Hello Metatransaction\";\n        owner = msg.sender;\n    }\n\n    /**\n     * OPTIONAL\n     * You should add one setTrustedForwarder(address _trustedForwarder)\n     * method with onlyOwner modifier so you can change the trusted\n     * forwarder address to switch to some other meta transaction protocol\n     * if any better protocol comes tomorrow or current one is upgraded.\n     */\n    function setTrustForwarder(address _trustedForwarder) public onlyOwner {\n        _setTrustedForwarder(_trustedForwarder);\n    }\n\n    /**\n     * Override this function.\n     * This version is to keep track of BaseRelayRecipient you are using\n     * in your contract.\n     */\n    function versionRecipient() external pure override returns (string memory) {\n        return \"1\";\n    }\n\n    function getStorage() public view returns (string memory) {\n        return data;\n    }\n\n    function setStorage(string memory _newData) public {\n        data = _newData;\n    }\n}\n",
  "sourcePath": "/home/yosephkurniasoenggoro/Documents/GitHub/moralis-biconomy-metatransactions/Truffle/contracts/SimpleStorage.sol",
  "compiler": {
    "name": "solc",
    "version": "0.8.9+commit.e5eed63a.Emscripten.clang"
  },
  "schemaVersion": "3.4.3",
  "updatedAt": "2021-12-08T18:33:25.773Z",
  "networkType": "ethereum",
  "devdoc": {
    "kind": "dev",
    "methods": {},
    "version": 1
  },
  "userdoc": {
    "kind": "user",
    "methods": {
      "constructor": {
        "notice": "Set the trustedForwarder address either in constructor or in other init function in your contract"
      },
      "isTrustedForwarder(address)": {
        "notice": "return if the forwarder is trusted to forward relayed transactions to us. the forwarder is required to verify the sender's signature, and verify the call is not a replay."
      },
      "setTrustForwarder(address)": {
        "notice": "OPTIONAL You should add one setTrustedForwarder(address _trustedForwarder) method with onlyOwner modifier so you can change the trusted forwarder address to switch to some other meta transaction protocol if any better protocol comes tomorrow or current one is upgraded."
      },
      "versionRecipient()": {
        "notice": "Override this function. This version is to keep track of BaseRelayRecipient you are using in your contract."
      }
    },
    "version": 1
  }
}